{
  "contractName": "UserContract",
  "abi": [
    {
      "inputs": [
        {
          "internalType": "uint256",
          "name": "",
          "type": "uint256"
        }
      ],
      "name": "arrUser",
      "outputs": [
        {
          "internalType": "uint256",
          "name": "id",
          "type": "uint256"
        },
        {
          "internalType": "string",
          "name": "name",
          "type": "string"
        },
        {
          "internalType": "address",
          "name": "_address",
          "type": "address"
        },
        {
          "internalType": "int8",
          "name": "lng",
          "type": "int8"
        },
        {
          "internalType": "int8",
          "name": "lat",
          "type": "int8"
        },
        {
          "internalType": "bool",
          "name": "exists",
          "type": "bool"
        }
      ],
      "stateMutability": "view",
      "type": "function"
    },
    {
      "inputs": [
        {
          "internalType": "address",
          "name": "target",
          "type": "address"
        }
      ],
      "name": "addFriend",
      "outputs": [
        {
          "internalType": "bool",
          "name": "",
          "type": "bool"
        }
      ],
      "stateMutability": "nonpayable",
      "type": "function"
    },
    {
      "inputs": [
        {
          "internalType": "address",
          "name": "target",
          "type": "address"
        }
      ],
      "name": "acceptAddFriend",
      "outputs": [
        {
          "internalType": "bool",
          "name": "",
          "type": "bool"
        }
      ],
      "stateMutability": "nonpayable",
      "type": "function"
    },
    {
      "inputs": [],
      "name": "getFriendRequests",
      "outputs": [
        {
          "components": [
            {
              "internalType": "uint256",
              "name": "id",
              "type": "uint256"
            },
            {
              "internalType": "string",
              "name": "name",
              "type": "string"
            },
            {
              "internalType": "address",
              "name": "_address",
              "type": "address"
            },
            {
              "internalType": "int8",
              "name": "lng",
              "type": "int8"
            },
            {
              "internalType": "int8",
              "name": "lat",
              "type": "int8"
            },
            {
              "internalType": "bool",
              "name": "exists",
              "type": "bool"
            }
          ],
          "internalType": "struct User[]",
          "name": "",
          "type": "tuple[]"
        }
      ],
      "stateMutability": "view",
      "type": "function"
    },
    {
      "inputs": [],
      "name": "setUser",
      "outputs": [
        {
          "internalType": "bool",
          "name": "_success",
          "type": "bool"
        }
      ],
      "stateMutability": "nonpayable",
      "type": "function"
    },
    {
      "inputs": [],
      "name": "getUser",
      "outputs": [
        {
          "components": [
            {
              "internalType": "uint256",
              "name": "id",
              "type": "uint256"
            },
            {
              "internalType": "string",
              "name": "name",
              "type": "string"
            },
            {
              "internalType": "address",
              "name": "_address",
              "type": "address"
            },
            {
              "internalType": "int8",
              "name": "lng",
              "type": "int8"
            },
            {
              "internalType": "int8",
              "name": "lat",
              "type": "int8"
            },
            {
              "internalType": "bool",
              "name": "exists",
              "type": "bool"
            }
          ],
          "internalType": "struct User",
          "name": "",
          "type": "tuple"
        }
      ],
      "stateMutability": "view",
      "type": "function"
    },
    {
      "inputs": [
        {
          "internalType": "address",
          "name": "target",
          "type": "address"
        }
      ],
      "name": "getUserByAddress",
      "outputs": [
        {
          "components": [
            {
              "internalType": "uint256",
              "name": "id",
              "type": "uint256"
            },
            {
              "internalType": "string",
              "name": "name",
              "type": "string"
            },
            {
              "internalType": "address",
              "name": "_address",
              "type": "address"
            },
            {
              "internalType": "int8",
              "name": "lng",
              "type": "int8"
            },
            {
              "internalType": "int8",
              "name": "lat",
              "type": "int8"
            },
            {
              "internalType": "bool",
              "name": "exists",
              "type": "bool"
            }
          ],
          "internalType": "struct User",
          "name": "",
          "type": "tuple"
        }
      ],
      "stateMutability": "view",
      "type": "function"
    }
  ],
  "bytecode": "0x608060405234801561001057600080fd5b50611bb5806100206000396000f3fe608060405234801561001057600080fd5b506004361061007d5760003560e01c8063d6688cbd1161005b578063d6688cbd146100ee578063d7a1cfe11461010c578063eb11bd891461013c578063f38fc9d3146101715761007d565b80630fa33d131461008257806369c212f6146100a0578063832880e7146100d0575b600080fd5b61008a6101a1565b604051610097919061146b565b60405180910390f35b6100ba60048036038101906100b591906114e9565b61052b565b6040516100c7919061168b565b60405180910390f35b6100d86106ca565b6040516100e5919061168b565b60405180910390f35b6100f661086d565b60405161010391906117f8565b60405180910390f35b610126600480360381019061012191906114e9565b610a50565b604051610133919061146b565b60405180910390f35b61015660048036038101906101519190611846565b610d14565b604051610168969594939291906118ea565b60405180910390f35b61018b600480360381019061018691906114e9565b610e2f565b604051610198919061146b565b60405180910390f35b6000803390506000808273ffffffffffffffffffffffffffffffffffffffff1673ffffffffffffffffffffffffffffffffffffffff16815260200190815260200160002060020160169054906101000a900460ff1615610236576040517f08c379a000000000000000000000000000000000000000000000000000000000815260040161022d9061199e565b60405180910390fd5b60016000808373ffffffffffffffffffffffffffffffffffffffff1673ffffffffffffffffffffffffffffffffffffffff16815260200190815260200160002060020160166101000a81548160ff021916908315150217905550806000808373ffffffffffffffffffffffffffffffffffffffff1673ffffffffffffffffffffffffffffffffffffffff16815260200190815260200160002060020160006101000a81548173ffffffffffffffffffffffffffffffffffffffff021916908373ffffffffffffffffffffffffffffffffffffffff16021790555060016003600160038054905061032691906119ed565b8154811061033757610336611a21565b5b9060005260206000209060030201600001546103539190611a50565b6000808373ffffffffffffffffffffffffffffffffffffffff1673ffffffffffffffffffffffffffffffffffffffff1681526020019081526020016000206000018190555060036000808373ffffffffffffffffffffffffffffffffffffffff1673ffffffffffffffffffffffffffffffffffffffff168152602001908152602001600020908060018154018082558091505060019003906000526020600020906003020160009091909190915060008201548160000155600182018160010190805461041f90611ad5565b61042a92919061128e565b506002820160009054906101000a900473ffffffffffffffffffffffffffffffffffffffff168160020160006101000a81548173ffffffffffffffffffffffffffffffffffffffff021916908373ffffffffffffffffffffffffffffffffffffffff1602179055506002820160149054906101000a900460000b8160020160146101000a81548160ff021916908360000b60ff1602179055506002820160159054906101000a900460000b8160020160156101000a81548160ff021916908360000b60ff1602179055506002820160169054906101000a900460ff168160020160166101000a81548160ff0219169083151502179055505050600191505090565b61053361131b565b6000808373ffffffffffffffffffffffffffffffffffffffff1673ffffffffffffffffffffffffffffffffffffffff1681526020019081526020016000206040518060c00160405290816000820154815260200160018201805461059690611ad5565b80601f01602080910402602001604051908101604052809291908181526020018280546105c290611ad5565b801561060f5780601f106105e45761010080835404028352916020019161060f565b820191906000526020600020905b8154815290600101906020018083116105f257829003601f168201915b505050505081526020016002820160009054906101000a900473ffffffffffffffffffffffffffffffffffffffff1673ffffffffffffffffffffffffffffffffffffffff1673ffffffffffffffffffffffffffffffffffffffff1681526020016002820160149054906101000a900460000b60000b60000b81526020016002820160159054906101000a900460000b60000b60000b81526020016002820160169054906101000a900460ff1615151515815250509050919050565b6106d261131b565b60008060003373ffffffffffffffffffffffffffffffffffffffff1673ffffffffffffffffffffffffffffffffffffffff1681526020019081526020016000206040518060c00160405290816000820154815260200160018201805461073790611ad5565b80601f016020809104026020016040519081016040528092919081815260200182805461076390611ad5565b80156107b05780601f10610785576101008083540402835291602001916107b0565b820191906000526020600020905b81548152906001019060200180831161079357829003601f168201915b505050505081526020016002820160009054906101000a900473ffffffffffffffffffffffffffffffffffffffff1673ffffffffffffffffffffffffffffffffffffffff1673ffffffffffffffffffffffffffffffffffffffff1681526020016002820160149054906101000a900460000b60000b60000b81526020016002820160159054906101000a900460000b60000b60000b81526020016002820160169054906101000a900460ff16151515158152505090508091505090565b6060600160003373ffffffffffffffffffffffffffffffffffffffff1673ffffffffffffffffffffffffffffffffffffffff168152602001908152602001600020805480602002602001604051908101604052809291908181526020016000905b82821015610a4757838290600052602060002090600302016040518060c00160405290816000820154815260200160018201805461090b90611ad5565b80601f016020809104026020016040519081016040528092919081815260200182805461093790611ad5565b80156109845780601f1061095957610100808354040283529160200191610984565b820191906000526020600020905b81548152906001019060200180831161096757829003601f168201915b505050505081526020016002820160009054906101000a900473ffffffffffffffffffffffffffffffffffffffff1673ffffffffffffffffffffffffffffffffffffffff1673ffffffffffffffffffffffffffffffffffffffff1681526020016002820160149054906101000a900460000b60000b60000b81526020016002820160159054906101000a900460000b60000b60000b81526020016002820160169054906101000a900460ff161515151581525050815260200190600101906108ce565b50505050905090565b60003373ffffffffffffffffffffffffffffffffffffffff168273ffffffffffffffffffffffffffffffffffffffff161415610a8b57600080fd5b6000610a968361052b565b90508060a00151610aa657600080fd5b60005b600160003373ffffffffffffffffffffffffffffffffffffffff1673ffffffffffffffffffffffffffffffffffffffff16815260200190815260200160002080549050811015610bc7578373ffffffffffffffffffffffffffffffffffffffff16600160003373ffffffffffffffffffffffffffffffffffffffff1673ffffffffffffffffffffffffffffffffffffffff1681526020019081526020016000208281548110610b5b57610b5a611a21565b5b906000526020600020906003020160020160009054906101000a900473ffffffffffffffffffffffffffffffffffffffff1673ffffffffffffffffffffffffffffffffffffffff161415610bb457600092505050610d0f565b8080610bbf90611b07565b915050610aa9565b50600160003373ffffffffffffffffffffffffffffffffffffffff1673ffffffffffffffffffffffffffffffffffffffff168152602001908152602001600020819080600181540180825580915050600190039060005260206000209060030201600090919091909150600082015181600001556020820151816001019080519060200190610c5792919061136d565b5060408201518160020160006101000a81548173ffffffffffffffffffffffffffffffffffffffff021916908373ffffffffffffffffffffffffffffffffffffffff16021790555060608201518160020160146101000a81548160ff021916908360000b60ff16021790555060808201518160020160156101000a81548160ff021916908360000b60ff16021790555060a08201518160020160166101000a81548160ff021916908315150217905550505060019150505b919050565b60038181548110610d2457600080fd5b9060005260206000209060030201600091509050806000015490806001018054610d4d90611ad5565b80601f0160208091040260200160405190810160405280929190818152602001828054610d7990611ad5565b8015610dc65780601f10610d9b57610100808354040283529160200191610dc6565b820191906000526020600020905b815481529060010190602001808311610da957829003601f168201915b5050505050908060020160009054906101000a900473ffffffffffffffffffffffffffffffffffffffff16908060020160149054906101000a900460000b908060020160159054906101000a900460000b908060020160169054906101000a900460ff16905086565b600080600160003373ffffffffffffffffffffffffffffffffffffffff1673ffffffffffffffffffffffffffffffffffffffff16815260200190815260200160002090506000806000905060005b8380549050811015611054576000848281548110610e9e57610e9d611a21565b5b90600052602060002090600302016040518060c001604052908160008201548152602001600182018054610ed190611ad5565b80601f0160208091040260200160405190810160405280929190818152602001828054610efd90611ad5565b8015610f4a5780601f10610f1f57610100808354040283529160200191610f4a565b820191906000526020600020905b815481529060010190602001808311610f2d57829003601f168201915b505050505081526020016002820160009054906101000a900473ffffffffffffffffffffffffffffffffffffffff1673ffffffffffffffffffffffffffffffffffffffff1673ffffffffffffffffffffffffffffffffffffffff1681526020016002820160149054906101000a900460000b60000b60000b81526020016002820160159054906101000a900460000b60000b60000b81526020016002820160169054906101000a900460ff16151515158152505090508673ffffffffffffffffffffffffffffffffffffffff16816040015173ffffffffffffffffffffffffffffffffffffffff16141561104057819350600192505b50808061104c90611b07565b915050610e7d565b50801561128157826001848054905061106d91906119ed565b8154811061107e5761107d611a21565b5b906000526020600020906003020183838154811061109f5761109e611a21565b5b90600052602060002090600302016000820154816000015560018201816001019080546110cb90611ad5565b6110d692919061128e565b506002820160009054906101000a900473ffffffffffffffffffffffffffffffffffffffff168160020160006101000a81548173ffffffffffffffffffffffffffffffffffffffff021916908373ffffffffffffffffffffffffffffffffffffffff1602179055506002820160149054906101000a900460000b8160020160146101000a81548160ff021916908360000b60ff1602179055506002820160159054906101000a900460000b8160020160156101000a81548160ff021916908360000b60ff1602179055506002820160169054906101000a900460ff168160020160166101000a81548160ff021916908315150217905550905050828054806111e1576111e0611b50565b5b600190038181906000526020600020906003020160008082016000905560018201600061120e91906113f3565b6002820160006101000a81549073ffffffffffffffffffffffffffffffffffffffff02191690556002820160146101000a81549060ff02191690556002820160156101000a81549060ff02191690556002820160166101000a81549060ff02191690555050905560019350505050611289565b600093505050505b919050565b82805461129a90611ad5565b90600052602060002090601f0160209004810192826112bc576000855561130a565b82601f106112cd578054855561130a565b8280016001018555821561130a57600052602060002091601f016020900482015b828111156113095782548255916001019190600101906112ee565b5b5090506113179190611433565b5090565b6040518060c001604052806000815260200160608152602001600073ffffffffffffffffffffffffffffffffffffffff1681526020016000800b81526020016000800b81526020016000151581525090565b82805461137990611ad5565b90600052602060002090601f01602090048101928261139b57600085556113e2565b82601f106113b457805160ff19168380011785556113e2565b828001600101855582156113e2579182015b828111156113e15782518255916020019190600101906113c6565b5b5090506113ef9190611433565b5090565b5080546113ff90611ad5565b6000825580601f106114115750611430565b601f01602090049060005260206000209081019061142f9190611433565b5b50565b5b8082111561144c576000816000905550600101611434565b5090565b60008115159050919050565b61146581611450565b82525050565b6000602082019050611480600083018461145c565b92915050565b600080fd5b600073ffffffffffffffffffffffffffffffffffffffff82169050919050565b60006114b68261148b565b9050919050565b6114c6816114ab565b81146114d157600080fd5b50565b6000813590506114e3816114bd565b92915050565b6000602082840312156114ff576114fe611486565b5b600061150d848285016114d4565b91505092915050565b6000819050919050565b61152981611516565b82525050565b600081519050919050565b600082825260208201905092915050565b60005b8381101561156957808201518184015260208101905061154e565b83811115611578576000848401525b50505050565b6000601f19601f8301169050919050565b600061159a8261152f565b6115a4818561153a565b93506115b481856020860161154b565b6115bd8161157e565b840191505092915050565b6115d1816114ab565b82525050565b60008160000b9050919050565b6115ed816115d7565b82525050565b6115fc81611450565b82525050565b600060c08301600083015161161a6000860182611520565b5060208301518482036020860152611632828261158f565b915050604083015161164760408601826115c8565b50606083015161165a60608601826115e4565b50608083015161166d60808601826115e4565b5060a083015161168060a08601826115f3565b508091505092915050565b600060208201905081810360008301526116a58184611602565b905092915050565b600081519050919050565b600082825260208201905092915050565b6000819050602082019050919050565b600060c0830160008301516116f16000860182611520565b5060208301518482036020860152611709828261158f565b915050604083015161171e60408601826115c8565b50606083015161173160608601826115e4565b50608083015161174460808601826115e4565b5060a083015161175760a08601826115f3565b508091505092915050565b600061176e83836116d9565b905092915050565b6000602082019050919050565b600061178e826116ad565b61179881856116b8565b9350836020820285016117aa856116c9565b8060005b858110156117e657848403895281516117c78582611762565b94506117d283611776565b925060208a019950506001810190506117ae565b50829750879550505050505092915050565b600060208201905081810360008301526118128184611783565b905092915050565b61182381611516565b811461182e57600080fd5b50565b6000813590506118408161181a565b92915050565b60006020828403121561185c5761185b611486565b5b600061186a84828501611831565b91505092915050565b61187c81611516565b82525050565b600082825260208201905092915050565b600061189e8261152f565b6118a88185611882565b93506118b881856020860161154b565b6118c18161157e565b840191505092915050565b6118d5816114ab565b82525050565b6118e4816115d7565b82525050565b600060c0820190506118ff6000830189611873565b81810360208301526119118188611893565b905061192060408301876118cc565b61192d60608301866118db565b61193a60808301856118db565b61194760a083018461145c565b979650505050505050565b7f5573657220697320657869737473000000000000000000000000000000000000600082015250565b6000611988600e83611882565b915061199382611952565b602082019050919050565b600060208201905081810360008301526119b78161197b565b9050919050565b7f4e487b7100000000000000000000000000000000000000000000000000000000600052601160045260246000fd5b60006119f882611516565b9150611a0383611516565b925082821015611a1657611a156119be565b5b828203905092915050565b7f4e487b7100000000000000000000000000000000000000000000000000000000600052603260045260246000fd5b6000611a5b82611516565b9150611a6683611516565b9250827fffffffffffffffffffffffffffffffffffffffffffffffffffffffffffffffff03821115611a9b57611a9a6119be565b5b828201905092915050565b7f4e487b7100000000000000000000000000000000000000000000000000000000600052602260045260246000fd5b60006002820490506001821680611aed57607f821691505b60208210811415611b0157611b00611aa6565b5b50919050565b6000611b1282611516565b91507fffffffffffffffffffffffffffffffffffffffffffffffffffffffffffffffff821415611b4557611b446119be565b5b600182019050919050565b7f4e487b7100000000000000000000000000000000000000000000000000000000600052603160045260246000fdfea26469706673582212204bf853dc7cb33e335d6de3eeb6b6381318336d6d82dc5ef4c378ca2326b7052964736f6c634300080a0033",
  "immutableReferences": {},
  "source": "// SPDX-License-Identifier: MIT\r\npragma solidity ^0.8.0;\r\n\r\nstruct User {\r\n    uint256 id;\r\n    string name;\r\n    address _address;\r\n    int8 lng;\r\n    int8 lat;\r\n    bool exists;\r\n}\r\n\r\n\r\ncontract UserContract {\r\n    mapping(address => User)  Users;\r\n    mapping(address => User[])  FriendRequests;\r\n    mapping(address => User[])  Friends;\r\n    User[] public arrUser;\r\n\r\n    function addFriend(address target) public returns(bool) {\r\n        require(target != msg.sender);\r\n        User memory userByTarget = getUserByAddress(target);\r\n\r\n        require(userByTarget.exists);\r\n\r\n        for(uint i = 0; i < FriendRequests[msg.sender].length; i++) {\r\n            if (FriendRequests[msg.sender][i]._address == target) {\r\n                return false;\r\n            }\r\n        }\r\n        FriendRequests[msg.sender].push(userByTarget);\r\n        return true;\r\n    }\r\n\r\n    function acceptAddFriend(address target) public returns(bool)  {\r\n        User[] storage friendRequests = FriendRequests[msg.sender];\r\n        uint index;\r\n        bool isRequestExists = false;\r\n        for(uint i = 0; i < friendRequests.length; i++) {\r\n            User memory user = friendRequests[i];\r\n            if (user._address == target) {\r\n                index = i;\r\n                isRequestExists = true;\r\n            }\r\n        }\r\n        if (isRequestExists) {\r\n            friendRequests[index] = friendRequests[friendRequests.length - 1];\r\n            friendRequests.pop();\r\n            return true;\r\n        }\r\n        return false;\r\n    }\r\n\r\n    function getFriendRequests() public view returns(User[] memory) {\r\n        return FriendRequests[msg.sender];\r\n    }\r\n    \r\n    function setUser() public returns (bool _success) {\r\n        address sender = msg.sender;\r\n        require(!Users[sender].exists, \"User is exists\");\r\n        Users[sender].exists = true;\r\n        Users[sender]._address = sender;\r\n        Users[sender].id = arrUser[arrUser.length - 1].id + 1;\r\n        arrUser.push(Users[sender]);\r\n        return true;\r\n    }\r\n\r\n    function getUser() public view returns (User memory) {\r\n        User memory user = Users[msg.sender];\r\n        return user;\r\n    }\r\n\r\n    function getUserByAddress(address target) public view returns (User memory) {\r\n        return Users[target];\r\n    }\r\n}\r\n",
  "sourcePath": "D:\\my-project\\example-smart-contract\\contracts\\User.sol",
  "compiler": {
    "name": "solc",
    "version": "0.8.10+commit.fc410830.Emscripten.clang"
  },
  "schemaVersion": "3.4.3",
  "updatedAt": "2022-01-10T11:41:57.502Z",
  "devdoc": {
    "kind": "dev",
    "methods": {},
    "version": 1
  },
  "userdoc": {
    "kind": "user",
    "methods": {},
    "version": 1
  }
}